:020000040000FA
:100000000C9480000C94A8000C94A8000C94A800F8
:100010000C94A8000C94A8000C94A8000C94A800C0
:100020000C94A8000C94A8000C94A8000C94A800B0
:100030000C94A8000C94A8000C94A8000C94A800A0
:100040000C94D8070C94A8000C94A6070C94800775
:100050000C94A8000C94A8000C94A8000C94A80080
:100060000C94A8000C94A8004E414E494E49545996
:10007000494E46CDCCCC3D0AD7233C17B7D1387773
:10008000CC2B329595E6241FB14F0A000020410089
:1000900000C84200401C4620BCBE4CCA1B0E5AAED3
:1000A000C59D7400000000240027002A0000000005
:1000B00000250028002B00000000080002010000BD
:1000C00003040700000000000000000000000023FF
:1000D00000260029000404040404040404020202AB
:1000E0000202020303030303030102040810204079
:1000F00080010204081020010204081020002208D8
:1001000011241FBECFEFD8E0DEBFCDBF22E0A6E6B0
:10011000B1E001C01D92A534B207E1F711E0A0E003
:10012000B1E0E8E4F4E202C005900D92A636B10712
:10013000D9F710E0C0E8D0E004C02197FE010E948A
:100140001F10CF37D107C9F70E948B080C942212D9
:100150000C940000CF92DF92EF92FF92CF93DF9347
:10016000B0913302A0E08111AB2F8091340290E076
:10017000880F991FAC0145535F4FC0903902D09052
:100180003A02E0903B02F0903C0230E020E0FA01BD
:10019000C591D491E881B90190E080E0EB23EA13A6
:1001A0000AC02F5F3F4F6C157D058E059F0578F3C4
:1001B0006FEF7FEFCB01DF91CF91FF90EF90DF905A
:1001C000CF900895AF92BF92CF92DF92EF92FF92BD
:1001D0000F931F93CF93DF936C017B018B01040F6F
:1001E000151FEB015E01AE18BF08C017D10759F00B
:1001F0006991D601ED91FC910190F081E02DC6014D
:100200000995892B79F7C501DF91CF911F910F9146
:10021000FF90EF90DF90CF90BF90AF900895FC01DA
:10022000538D448D252F30E0842F90E0821B930B5B
:10023000541710F0CF96089501970895FC01918D01
:10024000828D981761F0A28DAE0FBF2FB11D5D9604
:100250008C91928D9F5F9F73928F90E008958FEFA6
:100260009FEF0895FC01918D828D981731F0828D5A
:10027000E80FF11D858D90E008958FEF9FEF0895B1
:10028000FC01918D228D892F90E0805C9F4F821B15
:1002900091098F739927089587E791E00E944001A3
:1002A00021E0892B09F420E0822F089580E090E07E
:1002B000892B29F00E944C0181110C9400000895B3
:1002C000FC01A48DA80FB92FB11DA35ABF4F2C91CB
:1002D000848D90E001968F739927848FA689B789C2
:1002E0002C93A089B1898C91837080648C93938DB9
:1002F000848D981306C00288F389E02D80818F7D5C
:1003000080830895EF92FF920F931F93CF93DF9313
:10031000EC0181E0888F9B8D8C8D98131AC0E88941
:10032000F989808185FF15C09FB7F894EE89FF8910
:100330006083E889F98980818370806480839FBFAE
:1003400081E090E0DF91CF911F910F91FF90EF90AE
:100350000895F62E0B8D10E00F5F1F4F0F731127BE
:10036000E02E8C8D8E110CC00FB607FCFACFE889F9
:10037000F989808185FFF5CFCE010E946001F1CF20
:10038000EB8DEC0FFD2FF11DE35AFF4FF0829FB76D
:10039000F8940B8FEA89FB8980818062CFCFCF935D
:1003A000DF93EC01888D8823B9F0AA89BB89E8899D
:1003B000F9898C9185FD03C0808186FD0DC00FB643
:1003C00007FCF7CF8C9185FFF2CF808185FFEDCFC1
:1003D000CE010E946001E9CFDF91CF910895833073
:1003E00081F028F4813099F08230A9F008958730A7
:1003F000A9F08830C9F08430B1F4809180008F7DFD
:1004000003C0809180008F7780938000089584B529
:100410008F7784BD089584B58F7DFBCF8091B00028
:100420008F778093B00008958091B0008F7DF9CFD1
:100430001F93CF93DF93282F30E0F901E954FF4F4A
:100440008491F901E751FF4FD491F901EB52FF4F2D
:10045000C491CC23A9F0162F81110E94EF01EC2F3B
:10046000F0E0EE0FFF1FE355FF4FA591B4918FB75A
:10047000F894EC91111108C0D095DE23DC938FBF66
:10048000DF91CF911F910895DE2BF8CFCF93DF93AB
:1004900090E0FC01E751FF4F24918B529F4FFC01EC
:1004A00084918823C9F090E0880F991FFC01ED55D5
:1004B000FF4FA591B491FC01E355FF4FC591D49135
:1004C00061110DC09FB7F8948C91209582238C9375
:1004D0008881282328839FBFDF91CF9108956230C0
:1004E00051F49FB7F8943C91822F809583238C938D
:1004F000E8812E2BEFCF8FB7F894EC912E2B2C9315
:100500008FBFEACF3FB7F89480916B0190916C0157
:10051000A0916D01B0916E0126B5A89B05C02F3F3B
:1005200019F00196A11DB11D3FBFBA2FA92F982F19
:100530008827BC01CD01620F711D811D911D42E014
:10054000660F771F881F991F4A95D1F708958F92DC
:100550009F92AF92BF92CF92DF92EF92FF924B01A8
:100560005C010E9482026B017C010E9482026C1974
:100570007D098E099F09683E734081059105A8F3A6
:1005800021E0821A9108A108B10888EEC80E83E024
:10059000D81EE11CF11C81149104A104B10429F7B7
:1005A000FF90EF90DF90CF90BF90AF909F908F9093
:1005B00008952FB7F8946091670170916801809158
:1005C000690190916A012FBF08950F931F930E94B4
:1005D000D90260937F017093800180938101909391
:1005E000820187E791E00E941E0197FF1DC00E94D3
:1005F000D90200917F0110918001209181013091F9
:100600008201601B710B820B930B00917B01109197
:100610007C0120917D0130917E0160177107820776
:100620009307F8F28FEF9FEF1F910F910895CF92EC
:10063000DF92EF92FF920F931F93CF93DF93CDB78B
:10064000DEB7C054D1400FB6F894DEBF0FBECDBFA9
:100650000E94D90200913502109136022091370292
:10066000309138026B017C01C01AD10AE20AF30A08
:1006700097018601003D17402105310590F48091D6
:100680003D02C05CDE4F0FB6F894DEBF0FBECDBF9B
:10069000DF91CF911F910F91FF90EF90DF90CF905E
:1006A00008956093350270933602809337029093D9
:1006B00038021092300210922F0210922E021092E5
:1006C0002D0210922C0262E0809131020E944602BB
:1006D00061E070E080E090E00E94A70261E080911C
:1006E00031020E94460260E0809131020E941802AD
:1006F000809132028551823020F58BE291E10197A1
:10070000F1F762E0809131020E94460280913E0240
:1007100090E08230910538F0880F991F880F991F5B
:1007200005970197F1F7F89480E00E94AA006F3FC7
:100730007F4F8F4F9F4F61F410923D02789480E07D
:10074000A0CF64E170E080E090E00E94A702D9CFE2
:1007500081E00E94AA006F3F7F4F8F4F9F4F61F350
:100760008E010F5F1F4F6E012FEBC21A2EEFD20AC0
:10077000780180E00E94AA00F70160837183828380
:10078000938381E00E94AA00F701648375838683C6
:100790009783F8E0EF0EF11CEC14FD0451F7789408
:1007A00030E020E0F801C080D180E280F380448115
:1007B000558166817781FFEFCF16DF06EF06FF06D2
:1007C00031F04F3F8FEF58076807780719F4109200
:1007D0003D02B5CFF90183E0F595E7958A95E1F7FC
:1007E000E45DFD4F8081880FC416D506E606F70646
:1007F00010F180832F5F3F4F085F1F4F2832310574
:1008000089F64091300220912C0280912D02280F10
:100810003327331F80912E02280F311D80912F0224
:10082000820F932F911D99274817190681F681E0B1
:1008300080933D0226CF8160DCCF089590E080E078
:100840000895FB0101900020E9F73197AF01461BA5
:10085000570BDC01ED91FC910280F381E02D0994AE
:100860008F929F92AF92BF92EF92FF920F931F933E
:10087000CF93DF93CDB7DEB7A1970FB6F894DEBF65
:100880000FBECDBF7C01FA01CB0119A2223008F4C2
:100890002AE08E010F5D1F4F822E912CB12CA12CCE
:1008A000BF01A50194010E94FD0FF901CA016A3040
:1008B0000CF5605DD8016E938D01232B242B252B25
:1008C00079F790E080E0109721F0BD01C7010E9408
:1008D0002104A1960FB6F894DEBF0FBECDBFDF9105
:1008E000CF911F910F91FF90EF90BF90AF909F908D
:1008F0008F900895695CDECF0F931F93CF93DF93A2
:10090000EC0188819981009759F02A813B81261753
:10091000370730F081E0DF91CF911F910F9108955B
:100920008B016F5F7F4F0E944A11009759F09983A6
:1009300088831B830A832C813D81232B59F7FC017B
:100940001082E8CF80E0E7CFCF93DF93EC0188817E
:100950009981009711F00E94C110198218821D829E
:100960001C821B821A82DF91CF910895CF93DF936F
:10097000EC0170E060E00E947C04811105C0CE01B2
:10098000DF91CF910C94A4041D821C8265E371E079
:1009900088819981DF91CF910C941B129F92AF9225
:1009A000BF92CF92DF92EF92FF920F931F93CF935C
:1009B000DF93EC016B015A0179012417350720F40C
:1009C0008B2D5901E42EF82E198218821B821A826F
:1009D0001D821C82CE010E94B604D60114960D9190
:1009E0001C91A016B10658F5E016F10608F487012F
:1009F000D601ED91FC911197E00FF11F90801082CC
:100A0000ED90FC90EA0CFB1CE114F10471F0F7018D
:100A100001900020E9F731975F01AE18BF08B501DA
:100A2000CE010E947C04811117C0CE010E94A40453
:100A3000F60180819181080F191FD8019C92CE0187
:100A4000DF91CF911F910F91FF90EF90DF90CF90AA
:100A5000BF90AF909F900895BD82AC82B70188810E
:100A600099810E941B12E4CFFC0180819181009743
:100A700011F00C94C11008952F923F924F925F9203
:100A80006F927F928F929F92AF92BF92CF92DF929E
:100A9000EF92FF921F93CF93DF93EC016A017B01EA
:100AA000722EAB019601CB01B6010E94F80F65E2F0
:100AB00071E0811126C046015701E894B7F82FEF85
:100AC0003FEF4FE75FE7C501B4010E94F80F8111C6
:100AD0000CC02FEF3FEF4FE75FE7C501B4010E9465
:100AE0006D0D69E271E0181664F02FEF3FEF4FE7EC
:100AF0005FE4C701B6010E94F30F1816B4F46DE26B
:100B000071E0CE01DF91CF911F91FF90EF90DF90C8
:100B1000CF90BF90AF909F908F907F906F905F909D
:100B20004F903F902F900C9421042FEF3FEF4FE711
:100B30005FECC701B6010E946D0D87FDE0CF20E09C
:100B400030E0A901C701B6010E946D0D312C212CA6
:100B500087FF0DC0E881F9810190F081E02D6DE201
:100B6000CE0109951C01F7FAF094F7F8F09410E023
:100B700060E070E080E09FE3711641F020E030E03B
:100B800040E251E40E94520F1F5FF6CFA701960189
:100B90000E94E60E2B013C010E94C40F4B015C0138
:100BA0002AE0BC01A401CE010E9430047C01E20CC9
:100BB000F31C1123E1F1C501B4010E94720D9B01E8
:100BC000AC01C301B2010E94E50E4B015C01E8815A
:100BD000F9810190F081E02D6EE2CE010995E80ED9
:100BE000F91E115020F120E030E040E251E4C5014F
:100BF000B4010E94D30D2B013C010E94C40F4B0194
:100C0000B12CA12C2AE0B501A401CE010E94300430
:100C1000E80EF91EC501B4010E94720D9B01AC01E2
:100C2000C301B2010E94E50E4B015C01DACFC7019E
:100C3000DF91CF911F91FF90EF90DF90CF90BF9009
:100C4000AF909F908F907F906F905F904F903F906C
:100C50002F900895CF93DF93EC0160E08E810E9486
:100C6000180261E08E810E94180260E08E810E946D
:100C700018028BE891E00197F1F7DF91CF91089589
:100C8000CF92DF92EF92FF920F931F93CF93DF9358
:100C90006C017C0187E0E80EF11CD0E0C0E0062F7B
:100CA00010E0B8010C2E02C0759567950A94E2F722
:100CB0006170F70181917F010E9418022196C43072
:100CC000D10579F7C601DF91CF911F910F91FF9068
:100CD000EF90DF90CF900C942A06CF92DF92EF92A4
:100CE000FF920F931F93CF93DF93EC01F62E642FA7
:100CF0008C810E9418028D818F3F19F060E00E9464
:100D000018020F2D10E08F8584FF25C06E0187E04B
:100D1000C80ED11CF12CE12CB8010E2C02C0759527
:100D200067950A94E2F76170F60181916F010E9464
:100D30001802FFEFEF1AFF0A88E0E816F10461F7E6
:100D4000CE01DF91CF911F910F91FF90EF90DF9037
:100D5000CF900C942A06B80184E0759567958A9522
:100D6000E1F7CE010E9440066F2DCE01DF91CF91B9
:100D70001F910F91FF90EF90DF90CF900C94400661
:100D800040E0682F84E192E00C946D06CF93DF93EE
:100D9000823029F4909123029860909323028093EB
:100DA00027021092280280E48093290280E1809338
:100DB0002A0280E580932B0261E0809118020E9454
:100DC0004602809119028F3F19F061E00E944602AD
:100DD00061E080911A020E944602C4E1D2E09E01C5
:100DE000245132408091230284FD0BC084E090E0C6
:100DF00021962817390744F461E08E810E9446024B
:100E0000EECF88E090E0F4CF8BE39DE00197F1F71F
:100E100060E0809118020E94180260E080911A023E
:100E20000E941802809119028F3F19F060E00E9421
:100E300018028091230284FD39C063E084E192E0CE
:100E40000E944006CBE4D6E4CE010197F1F763E0BF
:100E500084E192E00E9440062197F1F763E084E18B
:100E600092E00E94400683E592E00197F1F762E08C
:100E700084E192E00E9440068091230280620E94F9
:100E8000C00684E0809324028CE00E94C00681E0CA
:100E90000E94C0068BE39FE10197F1F782E0809307
:100EA000250286E0DF91CF910C94C00680620E94FB
:100EB000C0068BE496E40197F1F7809123028062EB
:100EC0000E94C00683E592E00197F1F7809123022A
:100ED00080620E94C006D0CF90912702891710F03F
:100EE0008FEF890FE82FF0E0EC5EFD4F848980687A
:100EF0000C94C00641E00E946D0681E090E00895E8
:100F00001F920F920FB60F9211242F933F934F937E
:100F10005F936F937F938F939F93AF93BF93EF9361
:100F2000FF9387E791E00E946001FF91EF91BF91ED
:100F3000AF919F918F917F916F915F914F913F9171
:100F40002F910F900FBE0F901F9018951F920F9228
:100F50000FB60F9211242F938F939F93EF93FF93CC
:100F6000E0918701F09188018081E0918D01F091FD
:100F70008E0182FD1BC09081809190018F5F8F73E5
:100F800020919101821741F0E0919001F0E0E95841
:100F9000FE4F958F80939001FF91EF919F918F91DC
:100FA0002F910F900FBE0F901F9018958081F4CF56
:100FB0001F920F920FB60F9211242F933F938F938E
:100FC0009F93AF93BF938091670190916801A09127
:100FD0006901B0916A013091660123E0230F2D373A
:100FE00058F50196A11DB11D2093660180936701FC
:100FF00090936801A0936901B0936A0180916B019D
:1010000090916C01A0916D01B0916E010196A11DAE
:10101000B11D80936B0190936C01A0936D01B0930F
:101020006E01BF91AF919F918F913F912F910F9042
:101030000FBE0F901F90189526E8230F0296A11D52
:10104000B11DD2CFE7E7F1E01382128288EE93E080
:10105000A0E0B0E084839583A683B7838BE091E022
:101060009183808385EC90E09587848784EC90E081
:101070009787868780EC90E0918B808B81EC90E065
:10108000938B828B82EC90E0958B848B86EC90E046
:10109000978B868B118E128E138E148EACE2B2E07B
:1010A00082E015968C9315978BE016968C93169785
:1010B000EBEEF0E0E4911796EC931797E7EDF0E094
:1010C000E4911896EC93189740E85EE360E070E0D6
:1010D0001D964D935D936D937C935097E4E1F2E000
:1010E000138212822DE131E03183208397E09483D3
:1010F0009FEF958398E0968399E097839AE0908795
:1011000081878CE08287138614861586168617865B
:1011100081E00C94C606CF93DF93CDB7DEB762971C
:101120000FB6F894DEBF0FBECDBF789484B5826051
:1011300084BD84B5816084BD85B5826085BD85B57B
:10114000816085BD80916E00816080936E001092F9
:101150008100809181008260809381008091810074
:101160008160809381008091800081608093800005
:101170008091B10084608093B1008091B000816063
:101180008093B00080917A00846080937A0080918F
:101190007A00826080937A0080917A0081608093E7
:1011A0007A0080917A00806880937A001092C10062
:1011B00082E00E94C60661E08DE00E94460260E087
:1011C00084E00E94460262E0809131020E94460261
:1011D0000E94D902605D77408109910960933502D0
:1011E00070933602809337029093380287E380939E
:1011F0003E02E0918701F091880182E08083E091D6
:101200008301F09184011082E0918501F0918601C3
:101210008FEC808310928F01E0918B01F0918C0113
:1012200086E08083E0918901F0918A01808180616C
:101230008083E0918901F0918A01808188608083B8
:10124000E0918901F0918A01808180688083E0913A
:101250008901F0918A0180818F7D8083EBEBF0E042
:101260008491EDEEF0E01491E9EDF0E004910023BB
:1012700041F181110E94EF01E02FF0E0EE0FFF1F1E
:10128000E553FF4FA591B4918C91182391E080E034
:1012900009F490E09F87888B0E941703882309F444
:1012A00057C0809132028B3028F08D3068F0855124
:1012B0008230E0F1612C712C30EC3D874FE74E8796
:1012C00022C0188A1F86E8CF60912D0270E090E05E
:1012D00080E00E94740D2DEC3CEC4CEC5DE30E9430
:1012E000D30D6B017C0160912C0270E090E080E0F6
:1012F0000E94740D9B01AC01C701B6010E94E60E6D
:101300003B018D879E870E941703882341F08091BF
:1013100032028C3009F4B7C010F58B30C9F1C12C02
:10132000D12C80ECE82E8FE7F82E5CC060912C0267
:1013300070912D0276276727762790E080E00E9443
:10134000720D2DEC3CEC4CEC5DE30E94D30DD8CF3C
:10135000612C712CF0ECFD872FE72E87D4CF8551BF
:101360008230E8F610912E02612F70E0762F66270A
:1013700066277F7780912F02682B90E080E00E94A3
:10138000720D2DEC3CEC4CEC5DE30E94D30D97C04C
:1013900060912E0270E090E080E00E94720D6B017F
:1013A0007C0110912F0217FF0AC0AC019B0160E085
:1013B00070E080E89FEB0E94E50E6B017C011F70DE
:1013C000612F70E090E080E00E94740D2DEC3CEC09
:1013D0004CEC5DE30E94D30DA70196010E94E60E3E
:1013E0006B017C0122E0B701A60187E791E00E9432
:1013F0003C0561E371E087E791E00E94210422E06F
:10140000A3016D857E8587E791E00E943C0563E33B
:1014100071E087E791E00E94210487E791E00E9454
:101420004001181619060CF07CC118861F821A8616
:1014300019861C861B86CE0107960E94B6040E9460
:10144000E502AB84BC8497FD43C08A30910509F462
:101450003FC089831A825FEFA51AB50AB501CE0194
:1014600007960E947C04882351F32F8138858B8551
:101470009C85BE016F5F7F4F820F931F0E941B12DE
:10148000BC86AB86DCCF10912E02612F70E090E01D
:1014900080E00E94720D6B017C0160912F026F70E1
:1014A00070E090E080E00E94740D2DEC3CEC4CEC80
:1014B0005DE30E94D30DA70196010E94E60E6B0129
:1014C0007C0117FF8FCFF7FAF094F7F8F0948ACFEA
:1014D000A114B10461F08F8098846CE270E0C401C3
:1014E0000E9410128C0108191909892B11F40FEFB1
:1014F0001FEF48018FEF881A980A8A149B0408F09E
:1015000005C1AF80B8846CE270E0C501880D991DFB
:101510000E941012009709F4F9C00F3F100709F458
:10152000F5C09C012A193B093A8B298B2F3F3F4F6D
:1015300009F4ECC0980150E040E0BE01695F7F4FC4
:10154000CE0101960E94CE0489819A81009709F408
:10155000CFC00E94BC0B1B012C01CE0101960E9442
:10156000340529893A89A401BE01695F7F4FCE0104
:1015700001960E94CE0489819A81009709F4BDC02A
:101580000E94BC0B4B015C01CE0101960E94340508
:101590002B853C8549895A894F5F5F4FBE01695F42
:1015A0007F4FCE0101960E94CE0489819A810097D7
:1015B00009F4A8C00E94C00B8B01CE0101960E94C5
:1015C0003405CE0107960E9434058F8598890197CE
:1015D00029F0160127014301AD84BE840E94D9027F
:1015E0006B017C018091730190917401A091750150
:1015F000B0917601A7019601281B390B4A0B5B0BB2
:10160000DA01C901883E9340A105B10580F1C0927D
:101610007301D0927401E0927501F092760181E03D
:101620000E94C0068BE39FE10197F1F780910001D2
:10163000882309F481C080E00E946C0766E371E0B2
:1016400084E192E00E94210422E0A101B20184E140
:1016500092E00E943C056DE371E084E192E00E941B
:1016600021048091000191E08927809300018091FD
:101670006F0190917001A0917101B0917201A70169
:101680009601281B390B4A0B5B0BDA01C901803A22
:101690009F40A105B10508F46CC0C0926F01D092C3
:1016A0007001E0927101F092720181E0012B09F466
:1016B00056C00E946C076CE471E084E192E00E94E5
:1016C000210461E08DE00E94180264EF71E080E087
:1016D00090E00E94A70240E050E0452B09F4BECD07
:1016E0000E944C01882309F4B9CD0E940000B6CDB8
:1016F000212C312C412C512C30CF812C912CA12C20
:10170000B12C42CF60E070E0CB0156CF812C912C00
:10171000A12CB12C212C312C412C512C10E000E0BB
:1017200050CF812C912CA12CB12C212C312C412C6F
:10173000512C10E000E049CF80E00E946C076FE37D
:1017400071E084E192E00E94210422E0A401B5014D
:1017500084E192E00E943C056AE471E07ECF0E9441
:101760006C0769E571E084E192E00E94210460E089
:10177000A9CF012BE1F3A5CF662777270C94FC0BAB
:101780001F93FC0199278827BC01E894119110321E
:10179000E9F3193010F01E30C8F31B3251F01D323E
:1017A00049F4689406C00E94E70B610F711D811D0A
:1017B000911D119110531A30B0F33EF4909580951D
:1017C000709561957F4F8F4F9F4F1F910895592FAF
:1017D000482F372F262F660F771F881F991F660FF8
:1017E000771F881F991F620F731F841F951F660F35
:1017F000771F881F991F0895B0E0A0E0E2E0FCE0A9
:101800000C94A50E5C017B016115710519F0DB01DB
:101810008D939C9385010F5F1F4FF501D0818D2F14
:1018200090E00E944C0D6C01892BB9F5DD32B9F5C1
:101830000F5F1F4FD5011196DC91C1E05801F1E017
:10184000AF1AB10843E050E060E770E0C5010E94C4
:10185000550D892B69F5680182E0C80ED11C45E061
:1018600050E06BE670E0C6010E94550D892B21F413
:10187000680197E0C90ED11CE114F10419F0D701F9
:10188000CD92DC9260E070E080E89FEFC111FFC074
:1018900060E070E080E89FE7FAC05801BBCFDB3220
:1018A00029F485010E5F1F4FF501D181C0E0C6CF3D
:1018B00043E050E068E670E0C5010E94550D892BB9
:1018C000E9F0F80110E000E020E030E0A9015F015C
:1018D000B0ED8B2E8D0E89E08815C8F19C2E689492
:1018E00091F88C2F8870C2FF16C0811102C00F5F63
:1018F0001F4F3196D501DC91C92DE9CFE114F104D8
:1019000029F00E5F1F4FF7011183008360E070E044
:1019100080EC9FE7BCC0882311F001501109A5E0BD
:10192000B0E00E94940E9B01AC01220F331F441FB4
:10193000551F280D311D411D511D283999E93907C1
:10194000490799E15907A8F2C6609C2ED2CFAEEFA5
:101950008A1206C0C3FD3CC09C2E689493F8C9CF80
:10196000DF7DD534A9F580818D3239F4C061DF0186
:101970001296818162E070E006C0DF018B32C1F314
:10198000119661E070E080535D01A61AB70A8A30B3
:10199000F8F4E0E8CE16ECE0DE065CF4B601660F83
:1019A000771F660F771FC60ED71ECC0CDD1CC80E26
:1019B000D11C5D01FFEFAF1ABF0A8C9180538A30B2
:1019C000A8F1C4FF03C0D194C194D1080C0D1D1D12
:1019D000C1FF09C0E114F10431F081E0A81AB10897
:1019E000D701AD92BC92CA01B9010E94720DC370B9
:1019F000C33009F490584B015C0120E030E0A901AC
:101A00000E946D0D882309F440C0CFE9D0E017FF94
:101A100005C0119501951109C7E8D0E06E01B8E144
:101A2000CB1AD10880E2E82EF12C0FC0D501B1CF3E
:101A3000FE0125913591459154910E191F09C5015B
:101A4000B4010E94D30D4B015C01D501C4010E15F8
:101A50001F0574F72497F594E794CC16DD06A9F7D3
:101A60008A2F880F8B2F881F8F3F49F020E030E0AE
:101A7000A901C501B4010E946D0D811106C082E269
:101A800090E09093400280933F02C501B401CDB72E
:101A9000DEB7ECE00C94C10E91110C94400E803234
:101AA00019F089508550C8F70895FB01DC014150B9
:101AB000504088F08D9181341CF08B350CF4805EA1
:101AC000659161341CF06B350CF4605E861B61110E
:101AD00071F3990B0895881BFCCF0E94AF0D08F499
:101AE00081E00895E89409C097FB3EF490958095B5
:101AF000709561957F4F8F4F9F4F9923A9F0F92FD4
:101B000096E9BB279395F695879577956795B79551
:101B1000F111F8CFFAF4BB0F11F460FF1BC06F5F37
:101B20007F4F8F4F9F4F16C0882311F096E911C049
:101B3000772321F09EE8872F762F05C0662371F06A
:101B400096E8862F70E060E02AF09A95660F771F7E
:101B5000881FDAF7880F9695879597F90895990F5A
:101B60000008550FAA0BE0E8FEEF16161706E80767
:101B7000F907C0F012161306E407F50798F0621B88
:101B8000730B840B950B39F40A2661F0232B242B5D
:101B9000252B21F408950A2609F4A140A6958FEF7C
:101BA000811D811D08950E94E60D0C945A0E0E941D
:101BB0004C0E38F00E94530E20F0952311F00C9437
:101BC000430E0C94490E11240C948E0E0E946B0E41
:101BD00070F3959FC1F3950F50E0551F629FF00180
:101BE000729FBB27F00DB11D639FAA27F00DB11D99
:101BF000AA1F649F6627B00DA11D661F829F222722
:101C0000B00DA11D621F739FB00DA11D621F839FA8
:101C1000A00D611D221F749F3327A00D611D231F7E
:101C2000849F600D211D822F762F6A2F11249F57CC
:101C300050409AF0F1F088234AF0EE0FFF1FBB1FCF
:101C4000661F771F881F91505040A9F79E3F51058E
:101C500080F00C94430E0C948E0E5F3FE4F3983E9C
:101C6000D4F3869577956795B795F795E7959F5F38
:101C7000C1F7FE2B880F911D9695879597F90895CA
:101C800099278827089597F99F6780E870E060E0BA
:101C900008959FEF80EC089500240A941616170605
:101CA00018060906089500240A941216130614064D
:101CB00005060895092E0394000C11F4882352F0B0
:101CC000BB0F40F4BF2B11F460FF04C06F5F7F4F68
:101CD0008F4F9F4F089557FD9058440F551F59F04F
:101CE0005F3F71F04795880F97FB991F61F09F3F09
:101CF00079F087950895121613061406551FF2CF32
:101D00004695F1DF08C0161617061806991FF1CF81
:101D100086957105610508940895E894BB276627A8
:101D20007727CB0197F908950E94D60EA59F900DB5
:101D3000B49F900DA49F800D911D112408952F92A2
:101D40003F924F925F926F927F928F929F92AF924B
:101D5000BF92CF92DF92EF92FF920F931F93CF9398
:101D6000DF93CDB7DEB7CA1BDB0B0FB6F894DEBF2F
:101D70000FBECDBF09942A88398848885F846E8455
:101D80007D848C849B84AA84B984C884DF80EE809F
:101D9000FD800C811B81AA81B981CE0FD11D0FB6A8
:101DA000F894DEBF0FBECDBFED010895A29FB00134
:101DB000B39FC001A39F700D811D1124911DB29F7F
:101DC000700D811D1124911D08955058BB27AA271D
:101DD0000E94FD0E0C945A0E0E944C0E38F00E9488
:101DE000530E20F039F49F3F19F426F40C94490E59
:101DF0000EF4E095E7FB0C94430EE92F0E946B0E66
:101E000058F3BA17620773078407950720F079F42F
:101E1000A6F50C948D0E0EF4E0950B2EBA2FA02D86
:101E20000B01B90190010C01CA01A0011124FF2787
:101E3000591B99F0593F50F4503E68F11A16F04082
:101E4000A22F232F342F4427585FF3CF4695379581
:101E50002795A795F0405395C9F77EF41F16BA0B46
:101E6000620B730B840BBAF09150A1F0FF0FBB1FF4
:101E7000661F771F881FC2F70EC0BA0F621F731F3D
:101E8000841F48F4879577956795B795F7959E3F9A
:101E900008F0B0CF9395880F08F09927EE0F97952B
:101EA000879508950E94660F0C945A0E0E94530E57
:101EB00058F00E944C0E40F029F45F3F29F00C943A
:101EC000430E51110C948E0E0C94490E0E946B0E11
:101ED00068F39923B1F3552391F3951B550BBB2759
:101EE000AA2762177307840738F09F5F5F4F220F9E
:101EF000331F441FAA1FA9F335D00E2E3AF0E0E895
:101F000032D091505040E695001CCAF72BD0FE2FDE
:101F100029D0660F771F881FBB1F26173707480772
:101F2000AB07B0E809F0BB0B802DBF01FF2793582A
:101F30005F4F3AF09E3F510578F00C94430E0C949D
:101F40008E0E5F3FE4F3983ED4F3869577956795C0
:101F5000B795F7959F5FC9F7880F911D969587955F
:101F600097F90895E1E0660F771F881FBB1F62177E
:101F700073078407BA0720F0621B730B840BBA0B3C
:101F8000EE1F88F7E09508950E94730E88F09F5722
:101F900098F0B92F9927B751B0F0E1F0660F771F8D
:101FA000881F991F1AF0BA95C9F714C0B13091F083
:101FB0000E948D0EB1E008950C948D0E672F782F3E
:101FC0008827B85F39F0B93FCCF386957795679548
:101FD000B395D9F73EF490958095709561957F4FB4
:101FE0008F4F9F4F08950E94AF0D08F48FEF089513
:101FF0000E94AF0D880B990B0895A1E21A2EAA1B1F
:10200000BB1BFD010DC0AA1FBB1FEE1FFF1FA217A8
:10201000B307E407F50720F0A21BB30BE40BF50BA5
:10202000661F771F881F991F1A9469F7609570952E
:10203000809590959B01AC01BD01CF010895EE0FF5
:10204000FF1F0590F491E02D09940F931F93CF93F8
:10205000DF938230910510F482E090E0E09143023A
:10206000F091440230E020E0B0E0A0E0309799F435
:102070002115310509F44AC0281B390B24303105DC
:10208000D8F58A819B816115710589F1FB019383E4
:102090008283FE0111C04081518102811381481762
:1020A0005907E0F04817590799F4109761F0129614
:1020B0000C93129713961C933296CF01DF91CF9118
:1020C0001F910F9108950093430210934402F4CF9F
:1020D0002115310551F04217530738F0A901DB01F2
:1020E0009A01BD01DF01F801C1CFEF01F9CF909353
:1020F000440280934302CDCFFE01E20FF31F819390
:1021000091932250310939832883D7CF20914102FE
:1021100030914202232B41F42091030130910401BC
:10212000309342022093410220910101309102013B
:102130002115310541F42DB73EB74091050150916D
:102140000601241B350BE0914102F0914202E21797
:10215000F307A0F42E1B3F0B2817390778F0AC01CA
:102160004E5F5F4F2417350748F04E0F5F1F5093A7
:10217000420240934102819391939FCFF0E0E0E0CF
:102180009CCFCF93DF930097E9F0FC013297138245
:102190001282A0914302B0914402ED0130E020E0B0
:1021A0001097A1F420813181820F931F2091410269
:1021B000309142022817390709F061C0F0934202BA
:1021C000E0934102DF91CF910895EA01CE17DF0736
:1021D000E8F54A815B819E0141155105B1F7E9019E
:1021E000FB83EA8349915991C40FD51FEC17FD0772
:1021F00061F4808191810296840F951FE901998392
:102200008883828193819B838A83F0E0E0E0129649
:102210008D919C9113970097B9F52D913C91119751
:10222000CD010296820F931F20914102309142020C
:102230002817390739F6309751F510924402109259
:102240004302B0934202A0934102BCCFD383C28326
:1022500040815181840F951FC817D90761F44E5FE3
:102260005F4F88819981480F591F518340838A812C
:102270009B81938382832115310509F0B0CFF093C0
:102280004402E09343029ECFFD01DC01C0CF1382E4
:102290001282D7CFB0E0A0E0E0E5F1E10C94A10E0E
:1022A0008C01009751F4CB010E9425108C01C801CC
:1022B000CDB7DEB7E0E10C94BD0EFC01E60FF71FD1
:1022C0009C0122503109E217F30708F49DC0D9019F
:1022D000CD91DC911197C617D70798F0C530D1057D
:1022E00030F3CE0104978617970708F3C61BD70B68
:1022F0002297C193D1936D937C93CF010E94C1101B
:10230000D6CF5B01AC1ABD0A4C018C0E9D1EA0916C
:102310004302B0914402512C412CF12CE12C109736
:1023200031F580914102909142028815990509F09A
:102330005CC04616570608F058C080910101909184
:102340000201009741F48DB79EB74091050150916D
:102350000601841B950BE817F90708F055C0F093A8
:102360004202E0934102F90171836083A0CF8D9115
:102370009C91119712966C90129713967C901397DC
:10238000A815B90559F56C0142E0C40ED11CCA1458
:10239000DB0420F1AC014A195B09DA0112961597AA
:1023A00080F06282738251834083D9016D937C9364
:1023B000E114F10471F0D7011396FC93EE93129798
:1023C00076CF22968C0F9D1FF90191838083F301B4
:1023D000EFCFF0934402E093430269CF48165906C9
:1023E00008F42C017D01D3019ACFCB010E94251066
:1023F0007C01009749F0AE01B8010E940712C801A4
:102400000E94C110870153CF10E000E050CFFB01C4
:10241000DC0102C001900D9241505040D8F7089560
:10242000FC018191861721F08823D9F79927089517
:102430003197CF010895FB01DC0101900D9200203E
:10244000E1F70895F894FFCF0100004502800000F5
:102450000000008201E2000F01CF0140011E0132A5
:1024600001000000007A07E2001E041D046E616E88
:1024700000696E66006F7666002C000D0A005465D8
:102480006D703A2000430048756D69646974793A4B
:1024900020002500414C41524D21202020202020A9
:0E24A0000020202020202020202020202000AE
:107E0000112484B714BE81FFF0D085E080938100F7
:107E100082E08093C00088E18093C10086E0809377
:107E2000C20080E18093C4008EE0C9D0259A86E02C
:107E300020E33CEF91E0309385002093840096BBD3
:107E4000B09BFECF1D9AA8958150A9F7CC24DD24C4
:107E500088248394B5E0AB2EA1E19A2EF3E0BF2EE7
:107E6000A2D0813461F49FD0082FAFD0023811F036
:107E7000013811F484E001C083E08DD089C08234E0
:107E800011F484E103C0853419F485E0A6D080C0E4
:107E9000853579F488D0E82EFF2485D0082F10E0AE
:107EA000102F00270E291F29000F111F8ED06801E7
:107EB0006FC0863521F484E090D080E0DECF843638
:107EC00009F040C070D06FD0082F6DD080E0C81688
:107ED00080E7D80618F4F601B7BEE895C0E0D1E017
:107EE00062D089930C17E1F7F0E0CF16F0E7DF06D8
:107EF00018F0F601B7BEE89568D007B600FCFDCFD4
:107F0000A601A0E0B1E02C9130E011968C91119780
:107F100090E0982F8827822B932B1296FA010C0160
:107F200087BEE89511244E5F5F4FF1E0A038BF0790
:107F300051F7F601A7BEE89507B600FCFDCF97BE46
:107F4000E89526C08437B1F42ED02DD0F82E2BD052
:107F50003CD0F601EF2C8F010F5F1F4F84911BD097
:107F6000EA94F801C1F70894C11CD11CFA94CF0C13
:107F7000D11C0EC0853739F428D08EE10CD085E9AC
:107F80000AD08FE07ACF813511F488E018D01DD067
:107F900080E101D065CF982F8091C00085FFFCCF94
:107FA0009093C60008958091C00087FFFCCF809118
:107FB000C00084FD01C0A8958091C6000895E0E648
:107FC000F0E098E1908380830895EDDF803219F02E
:107FD00088E0F5DFFFCF84E1DECF1F93182FE3DFCA
:107FE0001150E9F7F2DF1F91089580E0E8DFEE27F6
:047FF000FF270994CA
:027FFE00040479
:00000001FF
